{
  "contractName": "EthereumVesting",
  "abi": [
    {
      "constant": false,
      "inputs": [],
      "name": "renounceOwnership",
      "outputs": [],
      "payable": false,
      "stateMutability": "nonpayable",
      "type": "function"
    },
    {
      "constant": true,
      "inputs": [],
      "name": "owner",
      "outputs": [
        {
          "name": "",
          "type": "address"
        }
      ],
      "payable": false,
      "stateMutability": "view",
      "type": "function"
    },
    {
      "constant": true,
      "inputs": [],
      "name": "isOwner",
      "outputs": [
        {
          "name": "",
          "type": "bool"
        }
      ],
      "payable": false,
      "stateMutability": "view",
      "type": "function"
    },
    {
      "constant": false,
      "inputs": [
        {
          "name": "newOwner",
          "type": "address"
        }
      ],
      "name": "transferOwnership",
      "outputs": [],
      "payable": false,
      "stateMutability": "nonpayable",
      "type": "function"
    },
    {
      "inputs": [
        {
          "name": "beneficiary",
          "type": "address"
        },
        {
          "name": "start",
          "type": "uint256"
        },
        {
          "name": "cliffDuration",
          "type": "uint256"
        },
        {
          "name": "duration",
          "type": "uint256"
        },
        {
          "name": "revocable",
          "type": "bool"
        }
      ],
      "payable": false,
      "stateMutability": "nonpayable",
      "type": "constructor"
    },
    {
      "anonymous": false,
      "inputs": [
        {
          "indexed": false,
          "name": "amount",
          "type": "uint256"
        }
      ],
      "name": "EthereumReleased",
      "type": "event"
    },
    {
      "anonymous": false,
      "inputs": [],
      "name": "EthereumVestingRevoked",
      "type": "event"
    },
    {
      "anonymous": false,
      "inputs": [
        {
          "indexed": true,
          "name": "previousOwner",
          "type": "address"
        },
        {
          "indexed": true,
          "name": "newOwner",
          "type": "address"
        }
      ],
      "name": "OwnershipTransferred",
      "type": "event"
    },
    {
      "constant": true,
      "inputs": [],
      "name": "beneficiary",
      "outputs": [
        {
          "name": "",
          "type": "address"
        }
      ],
      "payable": false,
      "stateMutability": "view",
      "type": "function"
    },
    {
      "constant": true,
      "inputs": [],
      "name": "cliff",
      "outputs": [
        {
          "name": "",
          "type": "uint256"
        }
      ],
      "payable": false,
      "stateMutability": "view",
      "type": "function"
    },
    {
      "constant": true,
      "inputs": [],
      "name": "start",
      "outputs": [
        {
          "name": "",
          "type": "uint256"
        }
      ],
      "payable": false,
      "stateMutability": "view",
      "type": "function"
    },
    {
      "constant": true,
      "inputs": [],
      "name": "duration",
      "outputs": [
        {
          "name": "",
          "type": "uint256"
        }
      ],
      "payable": false,
      "stateMutability": "view",
      "type": "function"
    },
    {
      "constant": true,
      "inputs": [],
      "name": "revocable",
      "outputs": [
        {
          "name": "",
          "type": "bool"
        }
      ],
      "payable": false,
      "stateMutability": "view",
      "type": "function"
    },
    {
      "constant": true,
      "inputs": [],
      "name": "released",
      "outputs": [
        {
          "name": "",
          "type": "uint256"
        }
      ],
      "payable": false,
      "stateMutability": "view",
      "type": "function"
    },
    {
      "constant": true,
      "inputs": [],
      "name": "revoked",
      "outputs": [
        {
          "name": "",
          "type": "bool"
        }
      ],
      "payable": false,
      "stateMutability": "view",
      "type": "function"
    },
    {
      "constant": false,
      "inputs": [],
      "name": "release",
      "outputs": [],
      "payable": false,
      "stateMutability": "nonpayable",
      "type": "function"
    },
    {
      "constant": false,
      "inputs": [],
      "name": "revoke",
      "outputs": [],
      "payable": false,
      "stateMutability": "nonpayable",
      "type": "function"
    }
  ],
  "bytecode": "0x608060405234801561001057600080fd5b5060405160a080611405833981018060405260a081101561003057600080fd5b810190808051906020019092919080519060200190929190805190602001909291908051906020019092919080519060200190929190505050336000806101000a81548173ffffffffffffffffffffffffffffffffffffffff021916908373ffffffffffffffffffffffffffffffffffffffff1602179055506000809054906101000a900473ffffffffffffffffffffffffffffffffffffffff1673ffffffffffffffffffffffffffffffffffffffff16600073ffffffffffffffffffffffffffffffffffffffff167f8be0079c531659141344cd1fd0a4f28419497f9722a3daafe3b4186f6b6457e060405160405180910390a3600073ffffffffffffffffffffffffffffffffffffffff168573ffffffffffffffffffffffffffffffffffffffff16141515156101f0576040517f08c379a00000000000000000000000000000000000000000000000000000000081526004018080602001828103825260308152602001807f457468657265756d56657374696e673a2062656e65666963696172792069732081526020017f746865207a65726f20616464726573730000000000000000000000000000000081525060400191505060405180910390fd5b81831115151561028e576040517f08c379a000000000000000000000000000000000000000000000000000000000815260040180806020018281038252602e8152602001807f457468657265756d56657374696e673a20636c696666206973206c6f6e67657281526020017f207468616e206475726174696f6e00000000000000000000000000000000000081525060400191505060405180910390fd5b600082111515610306576040517f08c379a000000000000000000000000000000000000000000000000000000000815260040180806020018281038252601e8152602001807f457468657265756d56657374696e673a206475726174696f6e2069732030000081525060200191505060405180910390fd5b42610327838661045b64010000000002610a19179091906401000000009004565b1115156103c2576040517f08c379a00000000000000000000000000000000000000000000000000000000081526004018080602001828103825260328152602001807f457468657265756d56657374696e673a2066696e616c2074696d65206973206281526020017f65666f72652063757272656e742074696d65000000000000000000000000000081525060400191505060405180910390fd5b84600160006101000a81548173ffffffffffffffffffffffffffffffffffffffff021916908373ffffffffffffffffffffffffffffffffffffffff16021790555080600560006101000a81548160ff02191690831515021790555081600481905550610444838561045b64010000000002610a19179091906401000000009004565b6002819055508360038190555050505050506104e5565b60008082840190508381101515156104db576040517f08c379a000000000000000000000000000000000000000000000000000000000815260040180806020018281038252601b8152602001807f536166654d6174683a206164646974696f6e206f766572666c6f77000000000081525060200191505060405180910390fd5b8091505092915050565b610f11806104f46000396000f3fe6080604052600436106100c5576000357c0100000000000000000000000000000000000000000000000000000000900463ffffffff1680630fb5a6b4146100ca57806313d033c0146100f557806338af3eed1461012057806363d256ce14610177578063715018a6146101a657806386d1a69f146101bd578063872a7810146101d45780638da5cb5b146102035780638f32d59b1461025a5780639613252114610289578063b6549f75146102b4578063be9a6555146102cb578063f2fde38b146102f6575b600080fd5b3480156100d657600080fd5b506100df610347565b6040518082815260200191505060405180910390f35b34801561010157600080fd5b5061010a610351565b6040518082815260200191505060405180910390f35b34801561012c57600080fd5b5061013561035b565b604051808273ffffffffffffffffffffffffffffffffffffffff1673ffffffffffffffffffffffffffffffffffffffff16815260200191505060405180910390f35b34801561018357600080fd5b5061018c610385565b604051808215151515815260200191505060405180910390f35b3480156101b257600080fd5b506101bb61039c565b005b3480156101c957600080fd5b506101d26104d7565b005b3480156101e057600080fd5b506101e961063f565b604051808215151515815260200191505060405180910390f35b34801561020f57600080fd5b50610218610656565b604051808273ffffffffffffffffffffffffffffffffffffffff1673ffffffffffffffffffffffffffffffffffffffff16815260200191505060405180910390f35b34801561026657600080fd5b5061026f61067f565b604051808215151515815260200191505060405180910390f35b34801561029557600080fd5b5061029e6106d6565b6040518082815260200191505060405180910390f35b3480156102c057600080fd5b506102c96106e0565b005b3480156102d757600080fd5b506102e0610964565b6040518082815260200191505060405180910390f35b34801561030257600080fd5b506103456004803603602081101561031957600080fd5b81019080803573ffffffffffffffffffffffffffffffffffffffff16906020019092919050505061096e565b005b6000600454905090565b6000600254905090565b6000600160009054906101000a900473ffffffffffffffffffffffffffffffffffffffff16905090565b6000600760009054906101000a900460ff16905090565b6103a461067f565b1515610418576040517f08c379a00000000000000000000000000000000000000000000000000000000081526004018080602001828103825260208152602001807f4f776e61626c653a2063616c6c6572206973206e6f7420746865206f776e657281525060200191505060405180910390fd5b600073ffffffffffffffffffffffffffffffffffffffff166000809054906101000a900473ffffffffffffffffffffffffffffffffffffffff1673ffffffffffffffffffffffffffffffffffffffff167f8be0079c531659141344cd1fd0a4f28419497f9722a3daafe3b4186f6b6457e060405160405180910390a360008060006101000a81548173ffffffffffffffffffffffffffffffffffffffff021916908373ffffffffffffffffffffffffffffffffffffffff160217905550565b60006104e16109f6565b9050600081111515610581576040517f08c379a00000000000000000000000000000000000000000000000000000000081526004018080602001828103825260248152602001807f457468657265756d56657374696e673a206e6f20657468657265756d2061726581526020017f206475650000000000000000000000000000000000000000000000000000000081525060400191505060405180910390fd5b61059681600654610a1990919063ffffffff16565b600681905550600160009054906101000a900473ffffffffffffffffffffffffffffffffffffffff1673ffffffffffffffffffffffffffffffffffffffff166108fc829081150290604051600060405180830381858888f19350505050158015610604573d6000803e3d6000fd5b507f32f1f1535432170d571f93cf6e2e0bb574c8ec1347647b5be1318e5aa4038403816040518082815260200191505060405180910390a150565b6000600560009054906101000a900460ff16905090565b60008060009054906101000a900473ffffffffffffffffffffffffffffffffffffffff16905090565b60008060009054906101000a900473ffffffffffffffffffffffffffffffffffffffff1673ffffffffffffffffffffffffffffffffffffffff163373ffffffffffffffffffffffffffffffffffffffff1614905090565b6000600654905090565b6106e861067f565b151561075c576040517f08c379a00000000000000000000000000000000000000000000000000000000081526004018080602001828103825260208152602001807f4f776e61626c653a2063616c6c6572206973206e6f7420746865206f776e657281525060200191505060405180910390fd5b600560009054906101000a900460ff1615156107e0576040517f08c379a000000000000000000000000000000000000000000000000000000000815260040180806020018281038252601e8152602001807f457468657265756d56657374696e673a2063616e6e6f74207265766f6b65000081525060200191505060405180910390fd5b600760009054906101000a900460ff1615151561088b576040517f08c379a00000000000000000000000000000000000000000000000000000000081526004018080602001828103825260248152602001807f457468657265756d56657374696e673a2065746820616c72656164792072657681526020017f6f6b65640000000000000000000000000000000000000000000000000000000081525060400191505060405180910390fd5b60003073ffffffffffffffffffffffffffffffffffffffff1631905060006108b16109f6565b905060006108c88284610aa390919063ffffffff16565b90506001600760006101000a81548160ff0219169083151502179055506108ed610656565b73ffffffffffffffffffffffffffffffffffffffff166108fc829081150290604051600060405180830381858888f19350505050158015610932573d6000803e3d6000fd5b507f8f728418088cd2b402ad612966223e51e2d64d042984602b6cf8e535efe7ef0860405160405180910390a1505050565b6000600354905090565b61097661067f565b15156109ea576040517f08c379a00000000000000000000000000000000000000000000000000000000081526004018080602001828103825260208152602001807f4f776e61626c653a2063616c6c6572206973206e6f7420746865206f776e657281525060200191505060405180910390fd5b6109f381610b2e565b50565b6000610a14600654610a06610cb7565b610aa390919063ffffffff16565b905090565b6000808284019050838110151515610a99576040517f08c379a000000000000000000000000000000000000000000000000000000000815260040180806020018281038252601b8152602001807f536166654d6174683a206164646974696f6e206f766572666c6f77000000000081525060200191505060405180910390fd5b8091505092915050565b6000828211151515610b1d576040517f08c379a000000000000000000000000000000000000000000000000000000000815260040180806020018281038252601e8152602001807f536166654d6174683a207375627472616374696f6e206f766572666c6f77000081525060200191505060405180910390fd5b600082840390508091505092915050565b600073ffffffffffffffffffffffffffffffffffffffff168173ffffffffffffffffffffffffffffffffffffffff1614151515610bf9576040517f08c379a00000000000000000000000000000000000000000000000000000000081526004018080602001828103825260268152602001807f4f776e61626c653a206e6577206f776e657220697320746865207a65726f206181526020017f646472657373000000000000000000000000000000000000000000000000000081525060400191505060405180910390fd5b8073ffffffffffffffffffffffffffffffffffffffff166000809054906101000a900473ffffffffffffffffffffffffffffffffffffffff1673ffffffffffffffffffffffffffffffffffffffff167f8be0079c531659141344cd1fd0a4f28419497f9722a3daafe3b4186f6b6457e060405160405180910390a3806000806101000a81548173ffffffffffffffffffffffffffffffffffffffff021916908373ffffffffffffffffffffffffffffffffffffffff16021790555050565b6000803073ffffffffffffffffffffffffffffffffffffffff163190506000610ceb60065483610a1990919063ffffffff16565b9050600254421015610d0257600092505050610d82565b610d19600454600354610a1990919063ffffffff16565b42101580610d335750600760009054906101000a900460ff165b15610d42578092505050610d82565b610d7d600454610d6f610d6060035442610aa390919063ffffffff16565b84610d8590919063ffffffff16565b610e5290919063ffffffff16565b925050505b90565b600080831415610d985760009050610e4c565b60008284029050828482811515610dab57fe5b04141515610e47576040517f08c379a00000000000000000000000000000000000000000000000000000000081526004018080602001828103825260218152602001807f536166654d6174683a206d756c7469706c69636174696f6e206f766572666c6f81526020017f770000000000000000000000000000000000000000000000000000000000000081525060400191505060405180910390fd5b809150505b92915050565b60008082111515610ecb576040517f08c379a000000000000000000000000000000000000000000000000000000000815260040180806020018281038252601a8152602001807f536166654d6174683a206469766973696f6e206279207a65726f00000000000081525060200191505060405180910390fd5b60008284811515610ed857fe5b049050809150509291505056fea165627a7a72305820b68b93765e3e8fe923d994622bec751b39a08ae9781d7dff8cae233b364f0c680029",
  "source": "pragma solidity ^0.5.0;\n\nimport \"@openzeppelin/contracts/ownership/Ownable.sol\";\nimport \"@openzeppelin/contracts/math/SafeMath.sol\";\n\n/**\n * @title EthereumVesting\n * @dev A contract that can release its ethereum balance gradually like a\n * typical vesting scheme, with a cliff and vesting period. Optionally revocable by the\n * owner.\n */\ncontract EthereumVesting is Ownable {\n    // The vesting schedule is time-based (i.e. using block timestamps as opposed to e.g. block numbers), and is\n    // therefore sensitive to timestamp manipulation (which is something miners can do, to a certain degree). Therefore,\n    // it is recommended to avoid using short time durations (less than a minute). Typical vesting schemes, with a\n    // cliff period of a year and a duration of four years, are safe to use.\n    // solhint-disable not-rely-on-time\n\n    using SafeMath for uint256;\n\n    event EthereumReleased(uint256 amount);\n    event EthereumVestingRevoked();\n\n    // beneficiary of ethereum after they are released\n    address payable private _beneficiary;\n\n    // Durations and timestamps are expressed in UNIX time, the same units as block.timestamp.\n    uint256 private _cliff;\n    uint256 private _start;\n    uint256 private _duration;\n\n    bool private _revocable;\n\n    uint256 private _released;\n    bool private _revoked;\n\n    /**\n     * @dev Creates a vesting contract that vests its balance of Ethereum to the\n     * beneficiary, gradually in a linear fashion until start + duration. By then all\n     * of the balance will have vested.\n     * @param beneficiary address of the beneficiary to whom vested eth are transferred\n     * @param cliffDuration duration in seconds of the cliff in which eth will begin to vest\n     * @param start the time (as Unix time) at which point vesting starts\n     * @param duration duration in seconds of the period in which the eth will vest\n     * @param revocable whether the vesting is revocable or not\n     */\n    constructor (address payable beneficiary, uint256 start, uint256 cliffDuration, uint256 duration, bool revocable) public {\n        require(beneficiary != address(0), \"EthereumVesting: beneficiary is the zero address\");\n        // solhint-disable-next-line max-line-length\n        require(cliffDuration <= duration, \"EthereumVesting: cliff is longer than duration\");\n        require(duration > 0, \"EthereumVesting: duration is 0\");\n        // solhint-disable-next-line max-line-length\n        require(start.add(duration) > block.timestamp, \"EthereumVesting: final time is before current time\");\n\n        _beneficiary = beneficiary;\n        _revocable = revocable;\n        _duration = duration;\n        _cliff = start.add(cliffDuration);\n        _start = start;\n    }\n\n    /**\n     * @return the beneficiary of the ethereum.\n     */\n    function beneficiary() public view returns (address) {\n        return _beneficiary;\n    }\n\n    /**\n     * @return the cliff time of the ethereum vesting.\n     */\n    function cliff() public view returns (uint256) {\n        return _cliff;\n    }\n\n    /**\n     * @return the start time of the ethereum vesting.\n     */\n    function start() public view returns (uint256) {\n        return _start;\n    }\n\n    /**\n     * @return the duration of the ethereum vesting.\n     */\n    function duration() public view returns (uint256) {\n        return _duration;\n    }\n\n    /**\n     * @return true if the vesting is revocable.\n     */\n    function revocable() public view returns (bool) {\n        return _revocable;\n    }\n\n    /**\n     * @return the amount of the ethereum released.\n     */\n    function released() public view returns (uint256) {\n        return _released;\n    }\n\n    /**\n     * @return true if the ethereum is revoked.\n     */\n    function revoked() public view returns (bool) {\n        return _revoked;\n    }\n\n    /**\n     * @notice Transfers vested ethereum to beneficiary.\n     */\n    function release() public {\n        uint256 unreleased = _releasableAmount();\n\n        require(unreleased > 0, \"EthereumVesting: no ethereum are due\");\n\n        _released = _released.add(unreleased);\n\n        _beneficiary.transfer(unreleased);\n\n        emit EthereumReleased(unreleased);\n    }\n\n    /**\n     * @notice Allows the owner to revoke the vesting. Ethereum already vested\n     * remain in the contract, the rest are returned to the owner.\n     */\n    function revoke() public onlyOwner {\n        require(_revocable, \"EthereumVesting: cannot revoke\");\n        require(!_revoked, \"EthereumVesting: eth already revoked\");\n\n        uint256 balance = address(this).balance;\n\n        uint256 unreleased = _releasableAmount();\n        uint256 refund = balance.sub(unreleased);\n\n        _revoked = true;\n\n        address(uint160(owner())).transfer(refund);\n\n        emit EthereumVestingRevoked();\n    }\n\n    /**\n     * @dev Calculates the amount that has already vested but hasn't been released yet.\n     */\n    function _releasableAmount() private view returns (uint256) {\n        return _vestedAmount().sub(_released);\n    }\n\n    /**\n     * @dev Calculates the amount that has already vested.\n     */\n    function _vestedAmount() private view returns (uint256) {\n        uint256 currentBalance = address(this).balance;\n        uint256 totalBalance = currentBalance.add(_released);\n\n        if (block.timestamp < _cliff) {\n            return 0;\n        } else if (block.timestamp >= _start.add(_duration) || _revoked) {\n            return totalBalance;\n        } else {\n            return totalBalance.mul(block.timestamp.sub(_start)).div(_duration);\n        }\n    }\n}\n",
  "sourcePath": "/Users/willharborne/Desktop/EFX/repos/ethereum-vesting/contracts/EthereumVesting.sol",
  "compiler": {
    "name": "solc",
    "version": "0.5.0+commit.1d4f565a.Emscripten.clang"
  },
  "schemaVersion": "3.0.9",
  "updatedAt": "2020-01-31T05:52:40.328Z",
  "devdoc": {
    "details": "A contract that can release its ethereum balance gradually like a typical vesting scheme, with a cliff and vesting period. Optionally revocable by the owner.",
    "methods": {
      "beneficiary()": {
        "return": "the beneficiary of the ethereum."
      },
      "cliff()": {
        "return": "the cliff time of the ethereum vesting."
      },
      "constructor": {
        "details": "Creates a vesting contract that vests its balance of Ethereum to the beneficiary, gradually in a linear fashion until start + duration. By then all of the balance will have vested.",
        "params": {
          "beneficiary": "address of the beneficiary to whom vested eth are transferred",
          "cliffDuration": "duration in seconds of the cliff in which eth will begin to vest",
          "duration": "duration in seconds of the period in which the eth will vest",
          "revocable": "whether the vesting is revocable or not",
          "start": "the time (as Unix time) at which point vesting starts"
        }
      },
      "duration()": {
        "return": "the duration of the ethereum vesting."
      },
      "isOwner()": {
        "details": "Returns true if the caller is the current owner."
      },
      "owner()": {
        "details": "Returns the address of the current owner."
      },
      "released()": {
        "return": "the amount of the ethereum released."
      },
      "renounceOwnership()": {
        "details": "Leaves the contract without owner. It will not be possible to call `onlyOwner` functions anymore. Can only be called by the current owner.     * > Note: Renouncing ownership will leave the contract without an owner, thereby removing any functionality that is only available to the owner."
      },
      "revocable()": {
        "return": "true if the vesting is revocable."
      },
      "revoked()": {
        "return": "true if the ethereum is revoked."
      },
      "start()": {
        "return": "the start time of the ethereum vesting."
      },
      "transferOwnership(address)": {
        "details": "Transfers ownership of the contract to a new account (`newOwner`). Can only be called by the current owner."
      }
    },
    "title": "EthereumVesting"
  },
  "userdoc": {
    "methods": {
      "release()": {
        "notice": "Transfers vested ethereum to beneficiary."
      },
      "revoke()": {
        "notice": "Allows the owner to revoke the vesting. Ethereum already vested remain in the contract, the rest are returned to the owner."
      }
    }
  }
}